:020000040000FA
:060000000A128A110C280F
:10000800FE00030EF0000A08F1000A128A11D22835
:100018000A128A110F2883010A128A1170280030E7
:100028000A128A1196200A128A111A30F700F8303B
:10003800F600F60B1D28F70B1D28000003300A12E6
:100048008A11B8200A128A110730F7007D30F600AD
:10005800F60B2C28F70B2C2803300A128A11B8202B
:100068000A128A110F30F7004730F600F60B3A28CB
:10007800F70B3A283F2803300A128A11B8200A12CF
:100088008A1102300A128A11B8200A128A11023023
:100098000A128A11B8200A128A1108300A128A1123
:1000A800B8200A128A1100300A128A11B8200A12DE
:1000B8008A110C300A128A11B8200A128A110030EB
:1000C8000A128A11B8200A128A1106300A128A11F5
:1000D800B8200A128A1108000A128A11F3200A129B
:1000E8008A110A128A11F1200A128A11F430F200D8
:1000F8000130F3000A128A11F2200A128A110A1238
:100108008A1113200A128A110A128A11EF200A1280
:100118008A110A128A11E3200A128A1188280A12FF
:100128008A110C28F200721C9A289B289F28831297
:1001380003130816A228831203130812F21CA52819
:10014800A628A8288816A9288812721DAC28AD28C8
:10015800AF280817B0280813F21DB328B428B6280A
:100168008817B72888130800F5008312031388102E
:1001780075080A128A1196200A128A11831203132B
:1001880088150630F4003030F300F30BC928F40B5F
:10019800C928000083120313881108000A128A1163
:1001A800F4200A128A110A128A11F5200A128A11F9
:1001B80071088A00700E8300FE0E7E0E09008312FD
:1001C8000313061DE828E928EE280A128A11F020F0
:1001D8000A128A1108000800080008000800080030
:0401E8000800080003
:00000001FF
