:020000040000FA
:060000000A128A110C280F
:10000800FE00030EF1000A08F2000A128A11FF2B03
:100018000A128A110F280A128A111C240A128A113C
:10002800C1000A128A111D240A128A11C2000A127A
:100038008A111E240A128A11C3000A128A111F2467
:100048000A128A11C4000A128A1120240A128A117B
:10005800C5000A128A1121240A128A11C600F70162
:10006800F801F901FA0183010A128A11992A831207
:100078000313B30033080319422843285728AE1F37
:100088004628472857282B09B5002C09B6002D0902
:10009800B7002E09B800B50A0319B60A0319B70A3A
:1000A8000319B80A5F282E08B8002D08B7002C08D5
:1000B800B6002B08B5002E082D042C042B04031DB4
:1000C8006628672870280030AE000030AD00003088
:1000D800AC000030AB00F6289630AF002F08B40013
:1000E80082280130AF002F08B40701300310B80C84
:1000F800B70CB60CB50CFF3E031D7A28FE30380548
:10010800031D872888287528A4280130AF002F08E8
:10011800B4070130B507003003180130B6070030C6
:1001280003180130B707003003180130B807013051
:100138000310B80CB70CB60CB50CFF3E031D9C2879
:10014800FF303805031DA928AA288928B6280130B8
:10015800B4020130AF000310B50DB60DB70DB80DE0
:10016800AF0BAF28B71BB928BA28C0280230340211
:100178000318BF28C028AB283418C328C428CC28A3
:10018800FF30B505FF30B6057F30B705FF30B8053D
:100198000310B40C3408AF00B001B101B20118303B
:1001A8000310AF0DB00DB10DB20DFF3E031DD428E5
:1001B8002F08B5043008B6043108B7043208B8046B
:1001C80033080319E828E928EE28AE1FEC28ED28A3
:1001D800EE28B8173808AE003708AD003608AC006E
:1001E8003508AB0008000310750D760D8312031354
:1001F800A0002008A6002608031D032904290D29AC
:100208000030F6000030F5000030F4000030F30054
:1002180072297308A0007408A1007508A200760866
:10022800A3001F300310A30CA20CA10CA00CFF3ECE
:10023800031D16292008A4002408A500F517FF307F
:10024800F305FF30F405FF30F5050030F60596306C
:10025800A602A61F302931294B292608803A973E45
:100268000318372938293929042901300310F60CD5
:10027800F50CF40CF30CFF3E031D3A290130A000E5
:100288002008A607031D49294A293929622920304F
:100298002602031C502951295D2904290130A00098
:1002A8000310F30DF40DF50DF60DA00B54290130D4
:1002B800A6022608031D6129622952292508031967
:1002C800662967297229F309F409F509F609F30A79
:1002D8000319F40A0319F50A0319F60A0800831228
:1002E8000313A801A31F79297A298129A209A3093F
:1002F800A20A0319A30AA801A80AA51F8429852907
:100308008E29A409A509A40A0319A50A0130A60083
:100318002608A806A901AA01220823040319952979
:100328009629CD29A701A70AA42901300310A20DF7
:10033800A30DFF3E031D9A290130A6002608A70732
:10034800A31FA729A829992901300310A90DAA0DCF
:10035800FF3E031DA92923082502031DB5292208EC
:100368002402031CB829B929C0292208A402230899
:10037800031CA503A502291401300310A30CA20C29
:10038800FF3E031DC1290130A702031DCC29CD2939
:10039800A82928080319D129D229D729A909AA09DE
:1003A800A90A0319AA0A2A08A3002908A200080012
:1003B80000300A128A114A230A128A111A3083124B
:1003C8000313A100F730A000A00BE829A10BE8292E
:1003D800ED2903300A128A118B230A128A11073079
:1003E80083120313A1007C30A000A00BF929A10BF4
:1003F800F929000003300A128A118B230A128A1184
:100408000F3083120313A1004730A000A00B0A2A63
:10041800A10B0A2A03300A128A118B230A128A11A5
:1004280002300A128A118B230A128A1102300A1228
:100438008A118B230A128A1108300A128A118B2317
:100448000A128A1100300A128A118B230A128A11A1
:100458000C300A128A118B230A128A1100300A12F0
:100468008A118B230A128A1106300A128A118B23E9
:100478000A128A110800831203131F15023083120F
:100488000313BB00BB0B462A00006430F5000030A4
:10049800F600831203131E08BB00BC013B08F300DF
:1004A8003C08F4000A128A11FC220A128A11740804
:1004B80083120313A5007308A4000030A2000130C2
:1004C800A3000A128A1173210A128A1183120313D4
:1004D8002208AB002308AC000030AC1BFF30AD0095
:1004E800AE0001300A128A113B200A128A118312C7
:1004F80003132E08C0002D08BF002C08BE002B08CF
:10050800BD004008F6003F08F5003E08F4003D082D
:10051800F3000A128A11F7200A128A11740883124A
:100528000313BA007308B9000800013083160313D7
:1005380085001D308600880181138312031386010C
:100548000A128A1124240A128A110A128A112324EF
:100558000A128A110A128A11A5230A128A110A128A
:100568008A11BE230A128A110A128A11DC210A1280
:100578008A110A128A1127230A128A110A128A1169
:1005880010240A128A11BD2A0A128A110C28831211
:1005980003130C1CD02AD12AFB2A770878040319E4
:1005A800D62AD72AF12A0130F9070318FA0A0030A7
:1005B800FA077A08803AF0004608803A7002031D6C
:1005C800E72A45087902031CEA2AEB2AF42A83124F
:1005D80003138610F701F801F42AF901FA018610CD
:1005E800831203130C100B308F00DC308E000800D0
:1005F80083120313A001A101731C032B042B0C2BE2
:10060800750883120313A0070318A10A7608A10727
:1006180001300310F50DF60DFF3E031D0D2B0130C3
:100628000310F40CF30CFF3E031D142B7308740421
:10063800031D1F2B202B002B831203132108F4000A
:100648002008F30008000A128A113F220A128A11B0
:1006580083120313390888000A128A113F220A12EA
:100668008A11831203133A08803AFF0080307F0210
:10067800031D402B0A3039020318432B442B492B06
:100688000A128A11EB230A128A110800F300731C5C
:100698004E2B4F2B532B831203130816562B831202
:1006A80003130812F31C592B5A2B5C2B88165D2B4D
:1006B8008812731D602B612B632B0817642B08139A
:1006C800F31D672B682B6A2B88176B2B8813080080
:1006D800831203132E08F4002D08F3001930F500D7
:1006E8000030F6000A128A11FC220A128A117408D4
:1006F80083120313B0007308AF003008AC002F0852
:10070800AB000A128A11D5230A128A110800F600D2
:1007180083120313881076080A128A114A230A12D0
:100728008A118312031308140630F5003030F400E0
:10073800F40B9C2BF50B9C2B000083120313081061
:1007480008008B170B17831603130C14831203135B
:100758009010101690160B308F00DC308E001010A1
:10076800C830AD000030AE000A128A116C230A129C
:100778008A110800831603131F149F141F159F1551
:100788001F17831203139F171F13831603139F1337
:100798009E01831203139E011F149F111F129F12A3
:1007A8000800F43083120313A2000130A3002C08C0
:1007B800A5002B08A4000A128A1173210A128A11B3
:1007C800831203132308C6002208C500080001305D
:1007D800F7000030F800F901FA01831203138614B8
:1007E800101477087804031DFA2BFB2BF52B8312C2
:1007F8000313101008000A128A11CB220A128A1158
:100808000A128A1125240A128A1172088A00710EA6
:100818008300FE0E7E0E090083120313061D152C9D
:10082800162C1B2C0A128A1122240A128A1108007B
:10083800193400340A3400340A340034080008003B
:04084800080008009C
:00000001FF
