:020000040000FA
:060000000A128A110C280F
:10000800FE00030EF1000A08F2000A128A11432FBB
:100018000A128A110F2883134C30FD000730FE00A6
:100028007530FF00443084000A128A1134270A12FE
:100038008A11CC01CD01CE01CF01D001D101F90146
:10004800FA0183010A128A11132D83120313470838
:10005800B5004608B4004908B7004808B600CB28E0
:100068006400823083120313B200DD30B100B10B9B
:100078003B28B20B3B28F701F70A01300A128A1114
:10008800BB240A128A1101300A128A11C8250A12E1
:100098008A11831203133708AC003608AB000A1222
:1000A8008A11D2220A128A118312031306195D28B3
:1000B8005E2874283708C9003608C8000230CE0008
:1000C8000030CF00033083120313B3008A30B2002C
:1000D8005530B100B10B6E28B20B6E28B30B6E28E9
:1000E80083120313861979287A28A6280130B607BF
:1000F8000318B70A0030B7073708803AFF00833083
:100108007F02031D8928E8303602031C8C288D28BD
:10011800912883120313B601B7018312031337081A
:10012800AC003608AB000A128A11D2220A128A11D0
:10013800823083120313B200DD30B100B10BA22864
:10014800B20BA22883120313061AAB28AC28CB28BB
:10015800FF30B6070318B70AFF30B707B71FB5282F
:10016800B628B828B601B7013708AC003608AB0086
:100178000A128A11D2220A128A11823083120313B8
:10018800B200DD30B100B10BC728B20BC72883120B
:1001980003134E034F040319D228D32834280A1214
:1001A8008A1154270A128A1177296400823083122F
:1001B8000313B200DD30B100B10BE028B20BE02828
:1001C800F701F70A01300A128A11BB240A128A11B0
:1001D80010300A128A11C8250A128A1183120313D1
:1001E8003508AC003408AB000A128A11D2220A1270
:1001F8008A118312031306190229032920293508B5
:10020800C7003408C6000A128A119A260A128A11EF
:10021800033083120313CE000030CF000330831263
:100228000313B3008A30B2005530B100B10B1A295C
:10023800B20B1A29B30B1A2983120313861925291D
:10024800262952290130B4070318B50A0030B5072A
:100258003508803AFF0083307F02031D3529E830D6
:100268003402031C382939293D2983120313B401A8
:10027800B501831203133508AC003408AB000A1229
:100288008A11D2220A128A11823083120313B20011
:10029800DD30B100B10B4E29B20B4E298312031386
:1002A800061A572958297729FF30B4070318B50AC1
:1002B800FF30B507B51F612962296429B401B5016A
:1002C8003508AC003408AB000A128A11D2220A128F
:1002D8008A11823083120313B200DD30B100B10BF2
:1002E8007329B20B73290230831203134E064F048D
:1002F80003197F298029D9280A128A1154270A123A
:100308008A118B29640083120313861294290330FF
:10031800831203134E064F0403199329942986293F
:100328000A128A1154270A128A1108008312031329
:10033800B30033080319A129A229B629AE1FA5299C
:10034800A629B6292B09B5002C09B6002D09B70036
:100358002E09B800B50A0319B60A0319B70A031912
:10036800B80ABE292E08B8002D08B7002C08B60018
:100378002B08B5002E082D042C042B04031DC529B9
:10038800C629CF290030AE000030AD000030AC00E7
:100398000030AB00552A9630AF002F08B400E12991
:1003A8000130AF002F08B40701300310B80CB70CA8
:1003B800B60CB50CFF3E031DD929FE303805031DC8
:1003C800E629E729D429032A0130AF002F08B4070A
:1003D8000130B507003003180130B60700300318A4
:1003E8000130B707003003180130B8070130031097
:1003F800B80CB70CB60CB50CFF3E031DFB29FF303B
:100408003805031D082A092AE829152A0130B402EB
:100418000130AF000310B50DB60DB70DB80DAF0B19
:100428000E2AB71B182A192A1F2A02303402031869
:100438001E2A1F2A0A2A3418222A232A2B2AFF3086
:10044800B505FF30B6057F30B705FF30B805031096
:10045800B40C3408AF00B001B101B2011830031078
:10046800AF0DB00DB10DB20DFF3E031D332A2F089D
:10047800B5043008B6043108B7043208B8043308A4
:100488000319472A482A4D2AAE1F4B2A4C2A4D2ABF
:10049800B8173808AE003708AD003608AC00350884
:1004A800AB0008000310750D760D83120313A0002E
:1004B8002008F8007808031D622A632A6C2A003095
:1004C800F6000030F5000030F4000030F300D12AC7
:1004D8007308A0007408A1007508A2007608A3009C
:1004E8001F300310A30CA20CA10CA00CFF3E031D8F
:1004F800752A2008A4002408F700F517FF30F30533
:10050800FF30F405FF30F5050030F6059630F802A7
:10051800F81F8F2A902AAA2A7808803A973E03184B
:10052800962A972A982A632A01300310F60CF50CAC
:10053800F40CF30CFF3E031D992A0130A00020089B
:10054800F807031DA82AA92A982AC12A2030780268
:10055800031CAF2AB02ABC2A632A0130A00003106A
:10056800F30DF40DF50DF60DA00BB32A0130F802CA
:100578007808031DC02AC12AB12A77080319C52A99
:10058800C62AD12AF309F409F509F609F30A031969
:10059800F40A0319F50A0319F60A080064308312ED
:1005A8000313A2000030A3002C08A5002B08A40008
:1005B8000A128A1140230A128A118312031322088D
:1005C800303EAD002D08AE000A30A2000030A30076
:1005D8002C08F6002B08F5006430F3000030F40016
:1005E8000A128A1106240A128A1174088312031344
:1005F800A5007308A4000A128A1140230A128A115E
:10060800831203132208303EAD002D08AF000A30D4
:10061800F3000030F4002C08F6002B08F5000A124D
:100628008A1106240A128A117308303E83120313B2
:10063800AD002D08B000F701F70A02300A128A113E
:10064800BB240A128A11831203132E080A128A1174
:100658005C250A128A11831203132F080A128A11C1
:100668005C250A128A118312031330080A128A11B0
:100678005C250A128A11080083120313A801A31F1C
:10068800462B472B4E2BA209A309A20A0319A30A3A
:10069800A801A80AA51F512B522B5B2BA409A50959
:1006A800A40A0319A50A0130A6002608A806A9016C
:1006B800AA01220823040319622B632B9A2BA70192
:1006C800A70A712B01300310A20DA30DFF3E031DD5
:1006D800672B0130A6002608A707A31F742B752BCC
:1006E800662B01300310A90DAA0DFF3E031D762BC2
:1006F80023082502031D822B22082402031C852BB4
:10070800862B8D2B2208A4022308031CA503A5020F
:10071800291401300310A30CA20CFF3E031D8E2BDD
:100728000130A702031D992B9A2B752B2808031952
:100738009E2B9F2BA42BA909AA09A90A0319AA0A67
:100748002A08A3002908A200080000300A128A110A
:1007580038260A128A111A30F800F830F700F70B19
:10076800B32BF80BB32B000003300A128A11B926F9
:100778000A128A110730F8007D30F700F70BC22BF8
:10078800F80BC22B03300A128A11B9260A128A11F1
:100798000F30F8004730F700F70BD02BF80BD02BB1
:1007A800D52B03300A128A11B9260A128A1102308F
:1007B8000A128A11B9260A128A1102300A128A11FB
:1007C800B9260A128A1108300A128A11B9260A12A1
:1007D8008A1100300A128A11B9260A128A110C30BD
:1007E8000A128A11B9260A128A1100300A128A11CD
:1007F800B9260A128A1106300A128A11B9260A1273
:100808008A11080083120313A101F61F0C2C0D2C6A
:10081800142CF509F609F50A0319F60AA101A10A2B
:10082800F41F172C182C1D2CF309F409F30A0319CB
:10083800F40A730874040319222C232C522CA001E7
:10084800A00A312C01300310F30DF40DFF3E031DF7
:10085800272C0130F7007708A007F41F342C352C1B
:10086800262C74087602031D3B2C73087502031CA2
:100878003E2C3F2C452C7308F5027408031CF60324
:10088800F60201300310F40CF30CFF3E031D462C56
:100898000130A002031D512C522C352C21080319BC
:1008A800562C572C5C2CF509F609F50A0319F60A9B
:1008B8007608F4007508F3000800831203131F1567
:1008C800023083120313BB00BB0B682C000064309A
:1008D800F5000030F600831203131E08BB00BC01AC
:1008E8003B08F3003C08F4000A128A11F1250A12A9
:1008F8008A11740883120313A5007308A40000303A
:10090800A2000130A3000A128A1140230A128A1198
:10091800831203132208AB002308AC000030AC1B81
:10092800FF30AD00AE0001300A128A119A210A1276
:100938008A11831203132E08C0002D08BF002C084B
:10094800BE002B08BD004008F6003F08F5003E0831
:10095800F4003D08F3000A128A1156220A128A117D
:10096800740883120313BA007308B90008008312CD
:100978000313A2002203031DC22CC32CE82C770802
:100988007F3EA0002008A5002508A0000430031021
:10099800A00CFF3E031DCB2C2008A1002108A300BA
:1009A80025080F39A0002008A40023080A128A117C
:1009B800B9260A128A118312031324080A128A110B
:1009C800B9260A128A11122D02302206031DED2CB7
:1009D800EE2C122D7708BF3EA0002008A5002508A0
:1009E800A00004300310A00CFF3E031DF62C2008C5
:1009F800A1002108A30025080F39A0002008A400A1
:100A080023080A128A11B9260A128A1183120313BB
:100A180024080A128A11B9260A128A11080001301C
:100A28008316031385001D30860087018312031384
:100A38008701831603138801811383120313860128
:100A48000A128A1185270A128A110A128A117D2729
:100A58000A128A110A128A111B270A128A110A120B
:100A68008A1104270A128A110A128A11A9230A1262
:100A78008A11823083120313C300DD30C200C20B17
:100A8800432DC30B432D013083120313CC000030D8
:100A9800CD000A128A1116260A128A110A128A1120
:100AA8007B260A128A1164004D2D0A128A110C281D
:100AB800F70077080F39F4007408F5007708F03963
:100AC800F4007408F6008312031308157608F4007E
:100AD80004300310F40CFF3E031D6D2D74080A1238
:100AE8008A1138260A128A118312031388150D30C9
:100AF800F400F40B7D2D83120313881175080A1274
:100B08008A1138260A128A118312031388150D30A8
:100B1800F400F40B8D2D831203138811080083123F
:100B280003130C1C982D992DC72D79087A040319E5
:100B38009E2D9F2DBD2D0130D0070318D10A0030FE
:100B4800D107861406175108803AF0004B08803AFE
:100B58007002031DB12D4A085002031CB42DB52D97
:100B6800C02D831203138610F901FA010613101021
:100B7800C02DD001D1018610831203130C100B3045
:100B88008F00DC308E00080083120313A200A0013E
:100B9800A101E32D2008220784000A128A115A268F
:100BA8000A128A110A128A115C250A128A11013066
:100BB80083120313A0070318A10A0030A107200815
:100BC800220784000A128A115A260A128A11003A48
:100BD800031DEF2DF02DCE2D0800F701F801731C31
:100BE800F62DF72DFD2D7508F7070318F80A760876
:100BF800F80701300310F50DF60DFF3E031DFE2D1D
:100C080001300310F40CF30CFF3E031D052E73088E
:100C18007404031D102E112EF32D7808F4007708A4
:100C2800F30008000A128A1161240A128A11831239
:100C380003133A08803AC1004908803A4102031D6B
:100C4800272E4808390203182A2E2B2E342E8312F9
:100C5800031386170A128A1161270A128A11372E7E
:100C68008312031386130800F300731C3C2E3D2ED9
:100C7800412E831203130816442E831203130812FD
:100C8800F31C472E482E4A2E88164B2E8812731DA9
:100C98004E2E4F2E512E0817522E0813F31D552E87
:100CA800562E582E8817592E8813080006308A00A9
:100CB8000408840A820700344E34453457342034FB
:100CC8005434483452344534533448344F344C3413
:100CD80044343A3400344E3445345734203456348E
:100CE8004F344C3455344D3445343A34003483123F
:100CF80003130619802E812E992E0130CE00003064
:100D0800CF008616033083120313BA008A30B90065
:100D18005530B800B80B8E2EB90B8E2EBA0B8E2E0E
:100D28000A128A1129200A128A1108008312031351
:100D38004708F4004608F3001930F5000030F600C3
:100D48000A128A11F1250A128A11740883120313F0
:100D5800AE007308AD002E08AC002D08AB000A12D7
:100D68008A11EC260A128A110800F600831203136E
:100D7800081176080A128A1138260A128A11831273
:100D8800031388150630F5003030F400F40BCA2E32
:100D9800F50BCA2E000083120313881108008B1C60
:100DA800D62ED72EEB2E79087A04031DDC2EDD2EE5
:100DB800EA2E831203134C084D040319E42EE52E82
:100DC800EA2E0A128A116B270A128A118B10080060
:100DD800F43083120313A2000130A3002C08A500ED
:100DE8002B08A4000A128A1140230A128A118312BE
:100DF80003132308CB002208CA004A08870008000A
:100E0800831603131F149F141F159F151F17831292
:100E180003139F171F13831603139F139E01831237
:100E280003139E011F149F111F129F1208008B1796
:100E38000B17831603130C14831203139010101648
:100E480090160B308F00DC308E0010100A128A11B9
:100E58009A260A128A1108007E088A007F088200F2
:100E68000A128A1130270A128A118000840A04089B
:100E78007D0603190034FF0A0319FE0A342F0A12EB
:100E88008A1193250A128A110A128A11D3260A1284
:100E98008A1172088A00710E8300FE0E7E0E090008
:100EA80000300A128A11B9260A128A1101300A1270
:100EB8008A11B9260A128A1108000130F900003097
:100EC800FA0083120313D001D10110140800013075
:100ED800F9000030FA0083120313D001D101101475
:100EE800080019340034C83400340A3400340A3491
:100EF8000034831603138115011081140115640051
:100F080008008316031301138B170B168B100800A8
:00000001FF
