:020000040000FA
:060000000A128A110C280F
:10000800FE00030EF1000A08F2000A128A11CE2D32
:100018000A128A110F2883134330FD000630FE00B0
:100028001130FF003B3084000A128A11BF250A12E2
:100038008A11C301C401C501C601F901FA0183018E
:100048000A128A117F2B831203133E08B5003D085C
:10005800B4004008B7003F08B600C92864008230E1
:1000680083120313B200DD30B100B10B3928B20B93
:100078003928F701F70A01300A128A1127230A12D0
:100088008A1101300A128A115A240A128A1183121B
:1000980003133708AC003608AB000A128A119821FE
:1000A8000A128A118312031306195B285C28722826
:1000B8003708C0003608BF000230C3000030C40053
:1000C800033083120313B3008A30B2005530B100F5
:1000D800B10B6C28B20B6C28B30B6C28831203137A
:1000E800861977287828A4280130B6070318B70A94
:1000F8000030B7073708803AFF0083307F02031DBE
:100108008728E8303602031C8A288B288F28831218
:100118000313B601B701831203133708AC0036087E
:10012800AB000A128A1198210A128A1182308312AE
:100138000313B200DD30B100B10BA028B20BA02828
:1001480083120313061AA928AA28C928FF30B6075C
:100158000318B70AFF30B707B71FB328B428B62863
:10016800B601B7013708AC003608AB000A128A118D
:1001780098210A128A11823083120313B200DD30EB
:10018800B100B10BC528B20BC52883120313430372
:1001980044040319D028D12832280A128A11F025DC
:1001A8000A128A1175296400823083120313B2007F
:1001B800DD30B100B10BDE28B20BDE28F701F70AFB
:1001C80001300A128A1127230A128A1110300A12E2
:1001D8008A115A240A128A11831203133508AC00B3
:1001E8003408AB000A128A1198210A128A11831264
:1001F80003130619002901291E293508BE003408F1
:10020800BD000A128A1140250A128A11033083128E
:100218000313C3000030C400033083120313B30078
:100228008A30B2005530B100B10B1829B20B182929
:10023800B30B18298312031386192329242950295B
:100248000130B4070318B50A0030B5073508803AFD
:10025800FF0083307F02031D3329E8303402031C7A
:10026800362937293B2983120313B401B5018312B8
:1002780003133508AC003408AB000A128A11982120
:100288000A128A11823083120313B200DD30B100E2
:10029800B10B4C29B20B4C2983120313061A5529AA
:1002A80056297529FF30B4070318B50AFF30B5077A
:1002B800B51F5F2960296229B401B5013508AC0072
:1002C8003408AB000A128A1198210A128A11823066
:1002D80083120313B200DD30B100B10B7129B20BE8
:1002E80071290230831203134306440403197D293C
:1002F8007E29D7280A128A11F0250A128A1189291B
:1003080064008312031386129229033083120313A5
:100318004306440403199129922984290A128A114F
:10032800F0250A128A110800643083120313A20010
:100338000030A3002C08A5002B08A4000A128A117B
:1003480006220A128A11831203132208303EAD00D6
:100358002D08AE000A30A2000030A3002C08F600D9
:100368002B08F5006430F3000030F4000A128A11FB
:10037800CC220A128A11740883120313A500730889
:10038800A4000A128A1106220A128A118312031380
:100398002208303EAD002D08AF000A30F3000030CF
:1003A800F4002C08F6002B08F5000A128A11CC225A
:1003B8000A128A117308303E83120313AD002D0808
:1003C800B000F701F70A02300A128A1127230A122D
:1003D8008A11831203132E080A128A11B8230A12EB
:1003E8008A11831203132F080A128A11B8230A12DA
:1003F8008A118312031330080A128A11B8230A12C9
:100408008A11080083120313A801A31F0C2A0D2ABE
:10041800142AA209A309A20A0319A30AA801A80A6F
:10042800A51F172A182A212AA409A509A40A03190D
:10043800A50A0130A6002608A806A901AA012208D3
:1004480023040319282A292A602AA701A70A372A78
:1004580001300310A20DA30DFF3E031D2D2A01300C
:10046800A6002608A707A31F3A2A3B2A2C2A0130F0
:100478000310A90DAA0DFF3E031D3C2A23082502DF
:10048800031D482A22082402031C4B2A4C2A532AFB
:100498002208A4022308031CA503A502291401307D
:1004A8000310A30CA20CFF3E031D542A0130A7021F
:1004B800031D5F2A602A3B2A28080319642A652A33
:1004C8006A2AA909AA09A90A0319AA0A2A08A300D3
:1004D8002908A200080000300A128A11CA240A1248
:1004E8008A111A30F800F830F700F70B792AF80B60
:1004F800792A000003300A128A115F250A128A112C
:100508000730F8007D30F700F70B882AF80B882AA7
:1005180003300A128A115F250A128A110F30F80077
:100528004730F700F70B962AF80B962A9B2A0330D8
:100538000A128A115F250A128A1102300A128A11D8
:100548005F250A128A1102300A128A115F250A12DF
:100558008A1108300A128A115F250A128A1100309E
:100568000A128A115F250A128A110C300A128A119E
:100578005F250A128A1100300A128A115F250A12B1
:100588008A1106300A128A115F250A128A11080098
:1005980083120313A101F61FD22AD32ADA2AF509F6
:1005A800F609F50A0319F60AA101A10AF41FDD2AC2
:1005B800DE2AE32AF309F409F30A0319F40A730893
:1005C80074040319E82AE92A182BA001A00AF72ABB
:1005D80001300310F30DF40DFF3E031DED2A013029
:1005E800F7007708A007F41FFA2AFB2AEC2A7408F8
:1005F8007602031D012B73087502031C042B052BBF
:100608000B2B7308F5027408031CF603F60201307D
:100618000310F40CF30CFF3E031D0C2B0130A00259
:10062800031D172B182BFB2A210803191C2B1D2B24
:10063800222BF509F609F50A0319F60A7608F400DB
:100648007508F300080083120313A2002203031D98
:100658002E2B2F2B542B77087F3EA0002008A500B7
:100668002508A00004300310A00CFF3E031D372B03
:100678002008A1002108A30025080F39A0002008A0
:10068800A40023080A128A115F250A128A1183120C
:10069800031324080A128A115F250A128A117E2B75
:1006A80002302206031D592B5A2B7E2B7708BF3E9A
:1006B800A0002008A5002508A00004300310A00C05
:1006C800FF3E031D622B2008A1002108A300250876
:1006D8000F39A0002008A40023080A128A115F25F8
:1006E8000A128A118312031324080A128A115F2539
:1006F8000A128A11080001308316031385001D3081
:100708008600870183120313870183160313880168
:1007180081138312031386010A128A1121260A12F1
:100728008A110A128A1119260A128A110A128A11C2
:10073800A6250A128A110A128A1179250A128A1123
:100748000A128A116F220A128A110A128A11A8241F
:100758000A128A110A128A1121250A128A116400C2
:10076800A92B0A128A110C28F70077080F39F40010
:100778007408F5007708F039F4007408F60083125D
:10078800031308157608F40004300310F40CFF3E38
:10079800031DC92B74080A128A11CA240A128A1165
:1007A8008312031388150D30F400F40BD92B831230
:1007B8000313881175080A128A11CA240A128A11A9
:1007C8008312031388150D30F400F40BE92B831200
:1007D800031388110800831203131F152030831296
:1007E8000313AD00AD0BF62B00000030831203138A
:1007F800A2000130A3001E08AD00AE012D08F300D1
:100808002E08F4006430F5000030F6000A128A1150
:1008180083240A128A11740883120313A50073082B
:10082800A4000A128A1106220A128A1183120313DB
:100838002308B0002208AF003008AC002F08AB0036
:100848000800831203130C1C2A2C2B2C592C790812
:100858007A040319302C312C4F2C0130C5070318AA
:10086800C60A0030C607861406174608803AF00004
:100878004208803A7002031D432C41084502031CBC
:10088800462C472C522C831203138610F901FA01C7
:1008980006131010522CC501C601861083120313CB
:1008A8000C10F3308F00CB308E0008008312031336
:1008B800A200A001A101752C2008220784000A12B9
:1008C8008A1100250A128A110A128A11B8230A12FB
:1008D8008A11013083120313A0070318A10A0030FC
:1008E800A1072008220784000A128A1100250A128B
:1008F8008A11003A031D812C822C602C0800F70114
:10090800F801731C882C892C8F2C7508F70703189D
:10091800F80A7608F80701300310F50DF60DFF3ECA
:10092800031D902C01300310F40CF30CFF3E031D43
:10093800972C73087404031DA22CA32C852C78080B
:10094800F4007708F30008000A128A11EF230A124C
:100958008A11831203132C08803AB1004008803AA8
:100968003102031DB92C3F082B020318BC2CBD2CE7
:10097800C62C8312031386170A128A11FD250A1240
:100988008A11C92C8312031386130800F300731C01
:10099800CE2CCF2CD32C831203130816D62C8312FB
:1009A80003130812F31CD92CDA2CDC2C8816DD2C46
:1009B8008812731DE02CE12CE32C0817E42C081393
:1009C800F31DE72CE82CEA2C8817EB2C8813080079
:100A000005308A000408840A820700344E344534D5
:100A100057342034543448345234453453344834F1
:100A20004F344C3444343A3400344E344534573423
:100A3000203456344F344C3455344D3445343A34E4
:100A40000034831203130619262D272D3F2D013064
:100A5000C3000030C4008616033083120313BA00AB
:100A60008A30B9005530B800B80B342DB90B342D8D
:100A7000BA0B342D0A128A1127200A128A11080093
:100A8000831203133E08F4003D08F3001930F5000B
:100A90000030F6000A128A1183240A128A1174089F
:100AA00083120313AE007308AD002E08AC002D08AE
:100AB000AB000A128A1190250A128A110800F6006A
:100AC00083120313081176080A128A11CA240A1223
:100AD0008A118312031388150630F5003030F400B4
:100AE000F40B702DF50B702D000083120313881189
:100AF0000800831603131F149F141F159F151F173B
:100B0000831203139F171F13831603139F139E0152
:100B1000831203139E011F149F111F129F120800BE
:100B2000193083120313A2000030A3002C08A50083
:100B30002B08A4000A128A1106220A128A118312B3
:100B400003132308C2002208C10008008B170B17EB
:100B5000831603130C1483120313901010169016AF
:100B6000F3308F00CB308E0010100A128A1140250E
:100B70000A128A1108007E088A007F0882000A1281
:100B80008A11BB250A128A118000840A04087D0696
:100B900003190034FF0A0319FE0ABF2D0A128A1135
:100BA00025240A128A110A128A11DF250A128A11D3
:100BB00072088A00710E8300FE0E7E0E09008B1CE7
:100BC000E22DE32DEF2D79087A04031DE82DE92DA0
:100BD000EE2D0A128A1107260A128A118B100800BC
:100BE00000300A128A115F250A128A1101300A1296
:100BF0008A115F250A128A1108000130F9000030BD
:100C0000FA0083120313C501C60110140800013055
:100C1000F9000030FA0083120313C501C601101455
:100C2000080019340034C83400340A3400340A345B
:100C3000003483160313811501108114011564001B
:100C400008008316031301138B170B168B10080073
:02400E00F63F7B
:00000001FF
