:020000040000FA
:060000000A128A110C280F
:10000800FE00030EF1000A08F2000A128A11012DFF
:100018000A128A110F280A128A1150250A128A1107
:10002800C2000A128A1151250A128A11C3000A1243
:100038008A1152250A128A11C4000A128A115325FC
:100048000A128A11C5000A128A1154250A128A1145
:10005800C6000A128A1155250A128A11C700C8015A
:10006800C901F901FA0183010A128A11732983125D
:100078000313B10031080319422843285728AC1F3D
:100088004628472857282909B3002A09B4002B090C
:10009800B5002C09B600B30A0319B40A0319B50A46
:1000A8000319B60A5F282C08B6002B08B5002A08E1
:1000B800B4002908B3002C082B042A042904031DC2
:1000C8006628672870280030AC000030AB0000308C
:1000D800AA000030A900F6289630AD002D08B2001D
:1000E80082280130AD002D08B20701300310B60C8C
:1000F800B50CB40CB30CFF3E031D7A28FE30360550
:10010800031D872888287528A4280130AD002D08EC
:10011800B2070130B307003003180130B4070030CC
:1001280003180130B507003003180130B607013055
:100138000310B60CB50CB40CB30CFF3E031D9C2881
:10014800FF303605031DA928AA288928B6280130BA
:10015800B2020130AD000310B30DB40DB50DB60DEC
:10016800AD0BAF28B51BB928BA28C0280230320217
:100178000318BF28C028AB283218C328C428CC28A5
:10018800FF30B305FF30B4057F30B505FF30B60545
:100198000310B20C3208AD00AE01AF01B001183047
:1001A8000310AD0DAE0DAF0DB00DFF3E031DD428ED
:1001B8002D08B3042E08B4042F08B5043008B6047B
:1001C80031080319E828E928EE28AC1FEC28ED28A7
:1001D800EE28B6173608AC003508AB003408AA007C
:1001E8003308A90008000310750D760D8312031358
:1001F800A0002008F8007808031D032904290D2908
:100208000030F6000030F5000030F4000030F30054
:1002180072297308A0007408A1007508A200760866
:10022800A3001F300310A30CA20CA10CA00CFF3ECE
:10023800031D16292008A4002408F700F517FF302D
:10024800F305FF30F405FF30F5050030F60596306C
:10025800F802F81F302931294B297808803A973E4F
:100268000318372938293929042901300310F60CD5
:10027800F50CF40CF30CFF3E031D3A290130A000E5
:100288002008F807031D49294A29392962292030FD
:100298007802031C502951295D2904290130A00046
:1002A8000310F30DF40DF50DF60DA00B54290130D4
:1002B800F8027808031D6129622952297708031971
:1002C800662967297229F309F409F509F609F30A79
:1002D8000319F40A0319F50A0319F60A080001308C
:1002E8008316031385001D308600870183120313CC
:1002F8008701831603138801811383120313860170
:100308000A128A1156250A128A110A128A115D25C3
:100318000A128A110A128A11BB240A128A110A12B5
:100328008A11D4240A128A110A128A1151220A1235
:100338008A110A128A11CC230A128A110A128A1106
:1003480030250A128A110A128A1123250A128A11E3
:10035800F701F70A01300A128A1108230A128A11D2
:100368000D300A128A11F6230A128A1106308312F6
:100378000313C1001330C000AD30BF00BF0BC2294A
:10038800C00BC229C10BC229F701F70A02300A12B1
:100398008A1108230A128A1101300A128A11F623D7
:1003A8000A128A110B3083120313C1002630C000D1
:1003B8005D30BF00BF0BDE29C00BDE29C10BDE2973
:1003C8009D290A128A110C2883120313A601A11F62
:1003D800EE29EF29F629A009A109A00A0319A10A03
:1003E800A601A60AA31FF929FA29032AA209A30923
:1003F800A20A0319A30A0130A4002408A606A7012B
:10040800A8012008210403190A2A0B2A422AA50157
:10041800A50A192A01300310A00DA10DFF3E031DE6
:100428000F2A0130A4002408A507A11F1C2A1D2A91
:100438000E2A01300310A70DA80DFF3E031D1E2A2A
:1004480021082302031D2A2A20082202031C2D2A20
:100458002E2A352A2008A2022108031CA303A3027E
:10046800271401300310A10CA00CFF3E031D362AEF
:100478000130A502031D412A422A1D2A2608031914
:10048800462A472A4C2AA709A809A70A0319A80A2D
:100498002808A1002708A000080000300A128A11C5
:1004A80044240A128A111A30F800F830F700F70BC2
:1004B8005B2AF80B5B2A000003300A128A11A12478
:1004C8000A128A110730F8007D30F700F70B6A2A04
:1004D800F80B6A2A03300A128A11A1240A128A1117
:1004E8000F30F8004730F700F70B782AF80B782A16
:1004F8007D2A03300A128A11A1240A128A110230B5
:100508000A128A11A1240A128A1102300A128A11C7
:10051800A1240A128A1108300A128A11A1240A1287
:100528008A1100300A128A11A1240A128A110C3089
:100538000A128A11A1240A128A1100300A128A1199
:10054800A1240A128A1106300A128A11A1240A1259
:100558008A110800831203131F1502308312031334
:10056800B900B90BB52A00006430F5000030F60078
:10057800831203131E08B900BA013908F3003A08B8
:10058800F4000A128A111F240A128A1174088312AD
:100598000313A3007308A2000030A0000130A100DB
:1005A8000A128A11E8210A128A11831203132008F9
:1005B800A9002108AA000030AA1BFF30AB00AC003C
:1005C80001300A128A113B200A128A11831203137E
:1005D8002C08BE002B08BD002A08BC002908BB0057
:1005E8003E08F6003D08F5003C08F4003B08F3001F
:1005F8000A128A11F7200A128A1174088312031347
:10060800B8007308B700080083120313A20022037E
:10061800031D0F2B102B352B77087F3EA0002008D9
:10062800A5002508A00004300310A00CFF3E031D00
:10063800182B2008A1002108A30025080F39A000C5
:100648002008A40023080A128A11A1240A128A1178
:100658008312031324080A128A11A1240A128A1188
:100668005F2B02302206031D3A2B3B2B5F2B7708AA
:10067800BF3EA0002008A5002508A00004300310F4
:10068800A00CFF3E031D432B2008A1002108A30056
:1006980025080F39A0002008A40023080A128A118F
:1006A800A1240A128A118312031324080A128A1138
:1006B800A1240A128A110800F70077080F39F400FC
:1006C8007408F5007708F039F4007408F60083120E
:1006D800031308157608F40004300310F40CFF3EE9
:1006E800031D712B74080A128A1144240A128A11F4
:1006F8008312031388150D30F400F40B812B831239
:100708000313881175080A128A1144240A128A11DF
:100718008312031388150D30F400F40B912B831208
:10072800031388110800831203130C1C9C2B9D2BA8
:10073800CB2B79087A040319A22BA32BC12B0130E8
:10074800C8070318C90A0030C907861406174908DC
:10075800803AF0004708803A7002031DB52B46081E
:100768004802031CB82BB92BC42B83120313861021
:10077800F901FA0106131010C42BC801C90186102B
:10078800831203130C100B308F00DC308E0008002E
:100798000A128A11AE220A128A1183120313370829
:1007A80087000A128A11AE220A128A1183120313D1
:1007B8003808803AFF0080307F02031DE52B0A309D
:1007C80037020318E82BE92BF22B83120313861741
:1007D8000A128A113C250A128A11F52B8312031377
:1007E8008613080083120313A200A001A101112C93
:1007F8002008220784000A128A1185240A128A1105
:100808000A128A1160230A128A1101308312031313
:10081800A0070318A10A0030A107200822078400B6
:100828000A128A1185240A128A11003A031D1D2C06
:100838001E2CFC2B0800F701F801731C242C252C16
:100848002B2C7508F7070318F80A7608F807013003
:100858000310F50DF60DFF3E031D2C2C013003107F
:10086800F40CF30CFF3E031D332C73087404031DB2
:100878003E2C3F2C212C7808F4007708F300080060
:10088800F300731C482C492C4D2C831203130816B3
:10089800502C831203130812F31C532C542C562C7F
:1008A8008816572C8812731D5A2C5B2C5D2C081740
:1008B8005E2C0813F31D612C622C642C8817652CA0
:1008C80088130800831203132C08F4002B08F30084
:1008D8001930F5000030F6000A128A111F240A1296
:1008E8008A11740883120313AE007308AD002E0832
:1008F800AA002D08A9000A128A11EB240A128A11EB
:10090800080004308A000408840A820700344D3441
:1009180055344E3444344F34203444344F344934FD
:1009280044344F3400344F344C34413420344D3443
:1009380055344E3444344F340034F60083120313D4
:10094800081176080A128A1144240A128A1183129D
:10095800031388150630F5003030F400F40BB22C80
:10096800F50BB22C000083120313881108008B17B3
:100978000B17831603130C1483120313901010160D
:1009880090160B308F00DC308E001010C830AB0092
:100998000030AC000A128A1166240A128A11080073
:1009A800831603131F149F141F159F151F178312F7
:1009B80003139F171F13831603139F139E0183129C
:1009C80003139E011F149F111F129F120800F43079
:1009D80083120313A0000130A1002A08A3002908EC
:1009E800A2000A128A11E8210A128A11831203133B
:1009F8002108C7002008C60008000A128A11972398
:100A08000A128A110A128A1112250A128A11720808
:100A18008A00710E8300FE0E7E0E09008B1C152DB8
:100A2800162D222D79087A04031D1B2D1C2D212D2E
:100A38000A128A1146250A128A118B100800003002
:100A48000A128A11A1240A128A1101300A128A1183
:100A5800A1240A128A11080083120313061D352DDA
:100A6800362D3B2D0A128A115C250A128A110800BC
:100A78000130F9000030FA0083120313C801C901DC
:100A8800101408000130F9000030FA008312031333
:100A9800C801C90110140800193400340A3400349C
:100AA8000A3400348316031301178B170B1608003A
:040AB800080008002A
:00000001FF
