:020000040000FA
:060000000A128A110C280F
:10000800FE00030EF1000A08F2000A128A115A2AA9
:100018000A128A110F280A128A1177220A128A11E3
:10002800B0000A128A1178220A128A11B1000A1243
:100038008A1179220A128A11B2000A128A117A22C6
:100048000A128A11B300F701F801F901FA018301D4
:100058000A128A11FB2883120313A201F41F352800
:1000680036283D28F309F409F30A0319F40AA20112
:10007800A20AF61F402841284A28F509F609F50A78
:100088000319F60A0130A0002008A206A301A40162
:10009800730874040319512852288928A101A10A58
:1000A800602801300310F30DF40DFF3E031D5628A0
:1000B8000130A0002008A107F41F632864285528F0
:1000C80001300310A30DA40DFF3E031D652874081D
:1000D8007602031D712873087502031C742875289D
:1000E8007C287308F5027408031CF603F60223142F
:1000F80001300310F40CF30CFF3E031D7D28013082
:10010800A102031D882889286428220803198D283C
:100118008E289328A309A409A30A0319A40A24086A
:10012800F4002308F300080000300A128A11BC21E9
:100138000A128A111A3083120313A100F730A000A3
:10014800A00BA428A10BA428A92803300A128A11FD
:10015800FD210A128A11073083120313A1007C3093
:10016800A000A00BB528A10BB528000003300A1287
:100178008A11FD210A128A110F3083120313A1007C
:100188004730A000A00BC628A10BC62803300A12CE
:100198008A11FD210A128A1102300A128A11FD21E0
:1001A8000A128A1102300A128A11FD210A128A11D2
:1001B80008300A128A11FD210A128A1100300A1227
:1001C8008A11FD210A128A110C300A128A11FD21A6
:1001D8000A128A1100300A128A11FD210A128A11A4
:1001E80006300A128A11FD210A128A11080001300C
:1001F8008316031385001D3086008801811383123E
:10020800031386010A128A117E220A128A110A121F
:100218008A117D220A128A110A128A1117220A12D9
:100228008A110A128A1198200A128A11831203135A
:10023800AE01AF010A128A117B220A128A110A1230
:100248008A116B220A128A118312031386192D2927
:100258002E291E292E082F04031D332934291E296F
:100268000130AE000030AF000A128A1146220A128D
:100278008A111A3083120313AD005E30AC006D3062
:10028800AB00AB0B4529AC0B4529AD0B45294C29D7
:100298001E290A128A110C28831203130C1C5529D3
:1002A800562990297708780403195B295C2979294C
:1002B800790888000130F9070318FA0A0030FA07AC
:1002C8007A08803AF0003308803A7002031D6E29DC
:1002D80032087902031C712972297C2983120313BD
:1002E8008610F701F80186177C29F901FA018610B2
:1002F800031083120313861E031403188429882904
:100308008312031386168B298312031386120C108B
:100318000B308F00DC308E00080083120313A0011D
:10032800A101731C98299929A1297508831203131F
:10033800A0070318A10A7608A10701300310F50DDC
:10034800F60DFF3E031DA22901300310F40CF30C37
:10035800FF3E031DA92973087404031DB429B52998
:100368009529831203132108F4002008F3000800DC
:10037800F300731CC029C129C52983120313081669
:10038800C829831203130812F31CCB29CC29CE29C0
:100398008816CF298812731DD229D329D529081781
:1003A800D6290813F31DD929DA29DC298817DD296C
:1003B80088130800831203132808F4002708F300A1
:1003C8001930F5000030F6000A128A1191210A123C
:1003D8008A11740883120313AA007308A9002A0853
:1003E800A6002908A5000A128A1130220A128A11C9
:1003F8000800F60083120313881076080A128A117F
:10040800BC210A128A118312031308140630F5005E
:100418003030F400F40B0E2AF50B0E2A000083127C
:100428000313081008008B170B17831603130C14FB
:10043800831203139010101690160B308F00DC30C7
:100448008E001010C830A7000030A8000A128A11C8
:10045800DE210A128A110800F430F3000130F4009A
:10046800831203132608F6002508F5000A128A11DC
:100478002F200A128A11740883120313B300730819
:10048800B20008000130F7000030F800F901FA0165
:10049800831203138614101477087804031D552A51
:1004A800562A502A83120313101008000A128A11C0
:1004B80050210A128A110A128A117F220A128A11FD
:1004C80072088A00710E8300FE0E7E0E09008312E8
:1004D8000313061D702A712A762A0A128A117C22B1
:1004E8000A128A110800193400340A34003408004A
:0804F8000800080008000800DC
:00000001FF
