:020000040000FA
:060000000A128A110C280F
:10000800FE00030EF1000A08F2000A128A11042DFC
:100018000A128A110F280A128A1136250A128A1121
:10002800C2000A128A1137250A128A11C3000A125D
:100038008A1138250A128A11C4000A128A11392530
:100048000A128A11C5000A128A113A250A128A115F
:10005800C6000A128A113B250A128A11C700C80174
:10006800C901F901FA0183010A128A11732983125D
:100078000313B10031080319422843285728AC1F3D
:100088004628472857282909B3002A09B4002B090C
:10009800B5002C09B600B30A0319B40A0319B50A46
:1000A8000319B60A5F282C08B6002B08B5002A08E1
:1000B800B4002908B3002C082B042A042904031DC2
:1000C8006628672870280030AC000030AB0000308C
:1000D800AA000030A900F6289630AD002D08B2001D
:1000E80082280130AD002D08B20701300310B60C8C
:1000F800B50CB40CB30CFF3E031D7A28FE30360550
:10010800031D872888287528A4280130AD002D08EC
:10011800B2070130B307003003180130B4070030CC
:1001280003180130B507003003180130B607013055
:100138000310B60CB50CB40CB30CFF3E031D9C2881
:10014800FF303605031DA928AA288928B6280130BA
:10015800B2020130AD000310B30DB40DB50DB60DEC
:10016800AD0BAF28B51BB928BA28C0280230320217
:100178000318BF28C028AB283218C328C428CC28A5
:10018800FF30B305FF30B4057F30B505FF30B60545
:100198000310B20C3208AD00AE01AF01B001183047
:1001A8000310AD0DAE0DAF0DB00DFF3E031DD428ED
:1001B8002D08B3042E08B4042F08B5043008B6047B
:1001C80031080319E828E928EE28AC1FEC28ED28A7
:1001D800EE28B6173608AC003508AB003408AA007C
:1001E8003308A90008000310750D760D8312031358
:1001F800A0002008F8007808031D032904290D2908
:100208000030F6000030F5000030F4000030F30054
:1002180072297308A0007408A1007508A200760866
:10022800A3001F300310A30CA20CA10CA00CFF3ECE
:10023800031D16292008A4002408F700F517FF302D
:10024800F305FF30F405FF30F5050030F60596306C
:10025800F802F81F302931294B297808803A973E4F
:100268000318372938293929042901300310F60CD5
:10027800F50CF40CF30CFF3E031D3A290130A000E5
:100288002008F807031D49294A29392962292030FD
:100298007802031C502951295D2904290130A00046
:1002A8000310F30DF40DF50DF60DA00B54290130D4
:1002B800F8027808031D6129622952297708031971
:1002C800662967297229F309F409F509F609F30A79
:1002D8000319F40A0319F50A0319F60A080001308C
:1002E8008316031385001D3086008801811383124D
:1002F800031386010A128A113C250A128A110A126E
:100308008A1143250A128A110A128A11AA240A128A
:100318008A110A128A11C3240A128A110A128A112E
:100328004B220A128A110A128A1110240A128A11FF
:100338000A128A1122250A128A110A128A1115250F
:100348000A128A11F701F70A01300A128A110223E8
:100358000A128A110D300A128A11C2230A128A114E
:10036800063083120313C1001330C000AD30BF0044
:10037800BF0BBC29C00BBC29C10BBC29F701F70A6C
:1003880002300A128A1102230A128A1101300A1253
:100398008A11C2230A128A110B3083120313C10077
:1003A8002630C0005D30BF00BF0BD829C00BD8294C
:1003B800C10BD82997290A128A110C288312031312
:1003C800A601A11FE829E929F029A009A109A00A85
:1003D8000319A10AA601A60AA31FF329F429FD29D6
:1003E800A209A309A20A0319A30A0130A400240838
:1003F800A606A701A801200821040319042A052A32
:100408003C2AA501A50A132A01300310A00DA10D4D
:10041800FF3E031D092A0130A4002408A507A11FD7
:10042800162A172A082A01300310A70DA80DFF3E27
:10043800031D182A21082302031D242A200822024A
:10044800031C272A282A2F2A2008A2022108031C75
:10045800A303A302271401300310A10CA00CFF3E34
:10046800031D302A0130A502031D3B2A3C2A172A06
:1004780026080319402A412A462AA709A809A70AD3
:100488000319A80A2808A1002708A00008000030BE
:100498000A128A1133240A128A111A30F800F83025
:1004A800F700F70B552AF80B552A000003300A12FB
:1004B8008A1190240A128A110730F8007D30F7005B
:1004C800F70B642AF80B642A03300A128A11902465
:1004D8000A128A110F30F8004730F700F70B722A1A
:1004E800F80B722A772A03300A128A1190240A120A
:1004F8008A1102300A128A1190240A128A110230D3
:100508000A128A1190240A128A1108300A128A11D2
:1005180090240A128A1100300A128A1190240A12B1
:100528008A110C300A128A1190240A128A1100309A
:100538000A128A1190240A128A1106300A128A11A4
:1005480090240A128A110800831203131F1502301F
:1005580083120313B900B90BAF2A00006430F50009
:100568000030F600831203131E08B900BA013908D7
:10057800F3003A08F4000A128A11EB230A128A11CE
:10058800740883120313A3007308A2000030A000AC
:100598000130A1000A128A11E2210A128A1183127B
:1005A80003132008A9002108AA000030AA1BFF3065
:1005B800AB00AC0001300A128A113B200A128A11E2
:1005C800831203132C08BE002B08BD002A08BC00A8
:1005D8002908BB003E08F6003D08F5003C08F40079
:1005E8003B08F3000A128A11F7200A128A117408CC
:1005F80083120313B8007308B700080083120313AB
:10060800A2002203031D092B0A2B2F2B77087F3EFC
:10061800A0002008A5002508A00004300310A00CA5
:10062800FF3E031D122B2008A1002108A300250866
:100638000F39A0002008A40023080A128A11902468
:100648000A128A118312031324080A128A119024A9
:100658000A128A11592B02302206031D342B352B1E
:10066800592B7708BF3EA0002008A5002508A00048
:1006780004300310A00CFF3E031D3D2B2008A100F1
:100688002108A30025080F39A0002008A40023088A
:100698000A128A1190240A128A1183120313240859
:1006A8000A128A1190240A128A110800F7007708A2
:1006B8000F39F4007408F5007708F039F40074086D
:1006C800F6008312031308157608F40004300310AB
:1006D800F40CFF3E031D6B2B74080A128A11332495
:1006E8000A128A118312031388150D30F400F40BD3
:1006F8007B2B83120313881175080A128A1133247D
:100708000A128A118312031388150D30F400F40BB2
:100718008B2B8312031388110800831203130C1CFC
:10072800962B972BC12B79087A0403199C2B9D2BA8
:10073800B72B0130C8070318C90A0030C907490890
:10074800803AF0004708803A7002031DAD2B460836
:100758004802031CB02BB12BBA2B8312031386104B
:10076800F901FA01BA2BC801C901861083120313D3
:100778000C100B308F00DC308E000800831203133E
:10078800A200A001A101DD2B2008220784000A1283
:100798008A1174240A128A110A128A115A230A1217
:1007A8008A11013083120313A0070318A10A00302D
:1007B800A1072008220784000A128A1174240A1249
:1007C8008A11003A031DE92BEA2BC82B0800F70110
:1007D800F801731CF02BF12BF72B7508F70703189A
:1007E800F80A7608F80701300310F50DF60DFF3EFC
:1007F800031DF82B01300310F40CF30CFF3E031D0E
:10080800FF2B73087404031D0A2C0B2CED2B78089E
:10081800F4007708F30008000A128A11A8220A12C5
:100828008A1183120313370888000A128A11A82232
:100838000A128A11831203133808803AFF008030A5
:100848007F02031D292C0A30370203182C2C2D2C6B
:10085800322C0A128A11F0240A128A110800F300B5
:10086800731C372C382C3C2C8312031308163F2C8E
:10087800831203130812F31C422C432C452C8816B0
:10088800462C8812731D492C4A2C4C2C08174D2CC9
:100898000813F31D502C512C532C8817542C8813F3
:1008A8000800831203132C08F4002B08F3001930F6
:1008B800F5000030F6000A128A11EB230A128A1199
:1008C800740883120313AE007308AD002E08AA0043
:1008D8002D08A9000A128A11DA240A128A110800BE
:1008E80004308A000408840A820700344D345534E1
:1008F8004E3444344F34203444344F34493444342F
:100908004F3400344F344C34413420344D34553452
:100918004E3444344F340034F60083120313081164
:1009280076080A128A1133240A128A1183120313D1
:1009380088150630F5003030F400F40BA12CF50BC7
:10094800A12C000083120313881108008B170B17C2
:10095800831603130C1483120313901010169016A9
:100968000B308F00DC308E001010C830AB00003028
:10097800AC000A128A1155240A128A11080083163B
:1009880003131F149F141F159F151F17831203139A
:100998009F171F13831603139F139E0183120313BC
:1009A8009E011F149F111F129F120800F43083121A
:1009B8000313A0000130A1002A08A3002908A200FF
:1009C8000A128A11E2210A128A11831203132108DA
:1009D800C7002008C60008000130F9000030FA00FE
:1009E80083120313C801C9018614101479087A0404
:1009F800031DFF2C002DFA2C83120313101008007E
:100A08000A128A1191230A128A110A128A112E25B2
:100A18000A128A1172088A00710E8300FE0E7E0E79
:100A2800090000300A128A1190240A128A11013032
:100A38000A128A1190240A128A11080083120313D9
:100A4800061D272D282D2D2D0A128A1142250A123E
:100A58008A1108008B1C312D322D352D831203137A
:100A680006170800193400340A3400340A340034F4
:100A78008316031301138B170B16080008000800D0
:00000001FF
