:020000040000FA
:060000000A128A110C280F
:10000800FE00030EF1000A08F2000A128A11272FD7
:100018000A128A110F2883134A30FD000730FE00A8
:100028006A30FF00423084000A128A1118270A1227
:100038008A11CA01CB01CC01CD01F901FA01830172
:100048000A128A11152D831203134508B5004408B6
:10005800B4004708B7004608B600C92864008230D3
:1000680083120313B200DD30B100B10B3928B20B93
:100078003928F701F70A01300A128A11BD240A1239
:100088008A1101300A128A11E5250A128A1183128F
:1000980003133708AC003608AB000A128A11D422C1
:1000A8000A128A118312031306195B285C28722826
:1000B8003708C7003608C6000230CA000030CB0037
:1000C800033083120313B3008A30B2005530B100F5
:1000D800B10B6C28B20B6C28B30B6C28831203137A
:1000E800861977287828A4280130B6070318B70A94
:1000F8000030B7073708803AFF0083307F02031DBE
:100108008728E8303602031C8A288B288F28831218
:100118000313B601B701831203133708AC0036087E
:10012800AB000A128A11D4220A128A118230831271
:100138000313B200DD30B100B10BA028B20BA02828
:1001480083120313061AA928AA28C928FF30B6075C
:100158000318B70AFF30B707B71FB328B428B62863
:10016800B601B7013708AC003608AB000A128A118D
:10017800D4220A128A11823083120313B200DD30AE
:10018800B100B10BC528B20BC528831203134A036B
:100198004B040319D028D12832280A128A1149277A
:1001A8000A128A1179296400823083120313B2007B
:1001B800DD30B100B10BDE28B20BDE28F701F70AFB
:1001C80001300A128A11BD240A128A1110300A124B
:1001D8008A11E5250A128A11831203133508AC0027
:1001E8003408AB000A128A11D4220A128A11831227
:1001F800031306190029012922293508C5003408E6
:10020800C4004508AE004408AD000A128A119526BC
:100218000A128A11033083120313CA000030CB007C
:10022800033083120313B3008A30B2005530B10093
:10023800B10B1C29B20B1C29B30B1C298312031305
:1002480086192729282954290130B4070318B50A23
:100258000030B5073508803AFF0083307F02031D60
:100268003729E8303402031C3A293B293F298312F5
:100278000313B401B501831203133508AC00340825
:10028800AB000A128A11D4220A128A118230831210
:100298000313B200DD30B100B10B5029B20B502965
:1002A80083120313061A59295A297929FF30B407EA
:1002B8000318B50AFF30B507B51F632964296629F5
:1002C800B401B5013508AC003408AB000A128A1134
:1002D800D4220A128A11823083120313B200DD304D
:1002E800B100B10B7529B20B7529023083120313C3
:1002F8004A064B04031981298229D7280A128A1130
:1003080049270A128A118D29640083120313861261
:1003180096290330831203134A064B0403199529BF
:10032800962988290A128A1149270A128A1108006F
:1003380083120313B30033080319A329A429B82986
:10034800AE1FA729A829B8292B09B5002C09B60082
:100358002D09B7002E09B800B50A0319B60A031902
:10036800B70A0319B80AC0292E08B8002D08B70023
:100378002C08B6002B08B5002E082D042C042B04DD
:10038800031DC729C829D1290030AE000030AD00AF
:100398000030AC000030AB00572A9630AF002F0871
:1003A800B400E3290130AF002F08B407013003106F
:1003B800B80CB70CB60CB50CFF3E031DDB29FE309C
:1003C8003805031DE829E929D629052A0130AF0097
:1003D8002F08B4070130B507003003180130B607FD
:1003E800003003180130B707003003180130B80790
:1003F80001300310B80CB70CB60CB50CFF3E031D4A
:10040800FD29FF303805031D0A2A0B2AEA29172A75
:100418000130B4020130AF000310B50DB60DB70DB1
:10042800B80DAF0B102AB71B1A2A1B2A212A023033
:1004380034020318202A212A0C2A3418242A252AAF
:100448002D2AFF30B505FF30B6057F30B705FF30E0
:10045800B8050310B40C3408AF00B001B101B20103
:1004680018300310AF0DB00DB10DB20DFF3E031DD6
:10047800352A2F08B5043008B6043108B704320805
:10048800B80433080319492A4A2A4F2AAE1F4D2AAD
:100498004E2A4F2AB8173808AE003708AD0036087C
:1004A800AC003508AB0008000310750D760D8312FB
:1004B8000313A0002008F8007808031D642A652AA1
:1004C8006E2A0030F6000030F5000030F4000030ED
:1004D800F300D32A7308A0007408A1007508A200CD
:1004E8007608A3001F300310A30CA20CA10CA00CCB
:1004F800FF3E031D772A2008A4002408F700F517FB
:10050800FF30F305FF30F405FF30F5050030F60540
:100518009630F802F81F912A922AAC2A7808803A75
:10052800973E0318982A992A9A2A652A01300310B7
:10053800F60CF50CF40CF30CFF3E031D9B2A01305E
:10054800A0002008F807031DAA2AAB2A9A2AC32A62
:1005580020307802031CB12AB22ABE2A652A01304B
:10056800A0000310F30DF40DF50DF60DA00BB52A40
:100578000130F8027808031DC22AC32AB32A770873
:100588000319C72AC82AD32AF309F409F509F60971
:10059800F30A0319F40A0319F50A0319F60A0800FD
:1005A800643083120313A2000030A3002C08A500B6
:1005B8002B08A4000A128A1142230A128A118312F4
:1005C80003132208303EAD002D08AE000A30A20009
:1005D8000030A3002C08F6002B08F5006430F30067
:1005E8000030F4000A128A1108240A128A117408C9
:1005F80083120313A5007308A4000A128A11422368
:100608000A128A11831203132208303EAD002D0806
:10061800AF000A30F3000030F4002C08F6002B0875
:10062800F5000A128A1108240A128A117308303E4A
:1006380083120313AD002D08B000F701F70A02304A
:100648000A128A11BD240A128A11831203132E0872
:100658000A128A114E250A128A11831203132F08CF
:100668000A128A114E250A128A11831203133008BE
:100678000A128A114E250A128A11080083120313DE
:10068800A801A31F482B492B502BA209A309A20A92
:100698000319A30AA801A80AA51F532B542B5D2BE5
:1006A800A409A509A40A0319A50A0130A600260869
:1006B800A806A901AA01220823040319642B652BA3
:1006C8009C2BA701A70A732B01300310A20DA30DC1
:1006D800FF3E031D692B0130A6002608A707A31FAC
:1006E800762B772B682B01300310A90DAA0DFF3E3E
:1006F800031D782B23082502031D842B22082402BE
:10070800031C872B882B8F2B2208A4022308031C89
:10071800A503A502291401300310A30CA20CFF3E67
:10072800031D902B0130A702031D9B2B9C2B772BBD
:1007380028080319A02BA12BA62BA909AA09A90AE5
:100748000319AA0A2A08A3002908A20008000030F1
:100758000A128A1133260A128A111A30F800F83060
:10076800F700F70BB52BF80BB52B000003300A1276
:100778008A11B4260A128A110730F8007D30F70072
:10078800F70BC42BF80BC42B03300A128A11B426BA
:100798000A128A110F30F8004730F700F70BD22BF6
:1007A800F80BD22BD72B03300A128A11B4260A125F
:1007B8008A1102300A128A11B4260A128A110230EA
:1007C8000A128A11B4260A128A1108300A128A11EA
:1007D800B4260A128A1100300A128A11B4260A12A3
:1007E8008A110C300A128A11B4260A128A110030B2
:1007F8000A128A11B4260A128A1106300A128A11BC
:10080800B4260A128A11080083120313A101F61FE5
:100818000E2C0F2C162CF509F609F50A0319F60A01
:10082800A101A10AF41F192C1A2C1F2CF309F40991
:10083800F30A0319F40A730874040319242C252CE9
:10084800542CA001A00A332C01300310F30DF40D31
:10085800FF3E031D292C0130F7007708A007F41F7D
:10086800362C372C282C74087602031D3D2C73086F
:100878007502031C402C412C472C7308F5027408A0
:10088800031CF603F60201300310F40CF30CFF3ED0
:10089800031D482C0130A002031D532C542C372C67
:1008A80021080319582C592C5E2CF509F609F50A6C
:1008B8000319F60A7608F4007508F3000800831295
:1008C80003131F15023083120313BB00BB0B6A2CE2
:1008D80000006430F5000030F600831203131E0890
:1008E800BB00BC013B08F3003C08F4000A128A1163
:1008F8000E260A128A11740883120313A5007308BE
:10090800A4000030A2000130A3000A128A11422379
:100918000A128A11831203132208AB002308AC00C1
:100928000030AC1BFF30AD00AE0001300A128A1156
:100938009C210A128A11831203132E08C0002D0865
:10094800BF002C08BE002B08BD004008F6003F0879
:10095800F5003E08F4003D08F3000A128A115822F7
:100968000A128A11740883120313BA007308B900B3
:10097800080083120313A2002203031DC42CC52CF4
:10098800EA2C77087F3EA0002008A5002508A000D3
:1009980004300310A00CFF3E031DCD2C2008A1003D
:1009A8002108A30025080F39A0002008A400230867
:1009B8000A128A11B4260A128A1183120313240810
:1009C8000A128A11B4260A128A11142D023022063C
:1009D800031DEF2CF02C142D7708BF3EA000200833
:1009E800A5002508A00004300310A00CFF3E031D3D
:1009F800F82C2008A1002108A30025080F39A00021
:100A08002008A40023080A128A11B4260A128A119F
:100A18008312031324080A128A11B4260A128A11AF
:100A2800080001308316031385001D3086008701F6
:100A3800831203138701831603138801811383121A
:100A4800031386010A128A117A270A128A110A12D6
:100A58008A1172270A128A110A128A11CE260A12DC
:100A68008A110A128A11E7260A128A110A128A11B1
:100A7800AB230A128A110A128A11BA250A128A119C
:100A88000A128A1176260A128A1164003F2D0A1268
:100A98008A110C28F70077080F39F4007408F5005C
:100AA8007708F039F4007408F60083120313081568
:100AB8007608F40004300310F40CFF3E031D5F2D8C
:100AC80074080A128A1133260A128A118312031330
:100AD80088150D30F400F40B6F2D83120313881161
:100AE80075080A128A1133260A128A11831203130F
:100AF80088150D30F400F40B7F2D83120313881131
:100B08000800831203130C1C8A2D8B2DB92D79082C
:100B18007A040319902D912DAF2D0130CC070318BD
:100B2800CD0A0030CD07861406174D08803AF0002C
:100B38004908803A7002031DA32D48084C02031C83
:100B4800A62DA72DB22D831203138610F901FA01E1
:100B580006131010B22DCC01CD0186108312031399
:100B68000C100B308F00DC308E0008000A128A113E
:100B780063240A128A1183120313390887000A12A0
:100B88008A1163240A128A11831203133A08803ADD
:100B9800C1004708803A4102031DD42D4608390296
:100BA8000318D72DD82DE12D8312031386170A12A7
:100BB8008A1156270A128A11E42D83120313861309
:100BC800080083120313A200A001A101002E20082F
:100BD800220784000A128A1155260A128A110A125B
:100BE8008A114E250A128A11013083120313A007B5
:100BF8000318A10A0030A1072008220784000A125E
:100C08008A1155260A128A11003A031D0C2E0D2E40
:100C1800EB2D0800F701F801731C132E142E1A2E61
:100C28007508F7070318F80A7608F8070130031063
:100C3800F50DF60DFF3E031D1B2E01300310F40CBD
:100C4800F30CFF3E031D222E73087404031D2D2E82
:100C58002E2E102E7808F4007708F3000800F30011
:100C6800731C372E382E3C2E8312031308163F2E82
:100C7800831203130812F31C422E432E452E8816A6
:100C8800462E8812731D492E4A2E4C2E08174D2EBB
:100C98000813F31D502E512E532E8817542E8813E7
:100CA800080006308A000408840A820700344E349B
:100CB800453457342034543448345234453453344A
:100CC80048344F344C3444343A3400344E34453488
:100CD8005734203456344F344C3455344D3445341D
:100CE8003A3400348312031306197B2E7C2E942E7B
:100CF8000130CA000030CB0086160330831203137C
:100D0800BA008A30B9005530B800B80B892EB90B33
:100D1800892EBA0B892E0A128A1127200A128A11E3
:100D28000800831203132E08F4002D08F30019306D
:100D3800F5000030F6000A128A110E260A128A11EE
:100D4800740883120313B0007308AF003008AC00B6
:100D58002F08AB000A128A11FE260A128A1108000F
:100D6800F60083120313081176080A128A11332633
:100D78000A128A118312031388150630F5003030E1
:100D8800F400F40BC52EF50BC52E000083120313D7
:100D9800881108008B170B17831603130C14831282
:100DA80003139010101690160B308F00DC308E0055
:100DB80010104508AE004408AD000A128A119526A5
:100DC8000A128A110800831603131F149F141F1593
:100DD8009F151F17831203139F171F1383160313DF
:100DE8009F139E01831203139E011F149F111F124C
:100DF8009F120800F43083120313A2000130A300ED
:100E08002C08A5002B08A4000A128A1142230A12F2
:100E18008A11831203132308C9002208C800080096
:100E28007E088A007F0882000A128A1114270A1293
:100E38008A118000840A04087D0603190034FF0A19
:100E48000319FE0A182F0A128A1185250A128A1117
:100E58000A128A1138270A128A1172088A00710E3A
:100E68008300FE0E7E0E09008B1C3B2F3C2F482F63
:100E780079087A04031D412F422F472F0A128A113D
:100E880060270A128A118B10080000300A128A1192
:100E9800B4260A128A1101300A128A11B4260A12DB
:100EA8008A1108000130F9000030FA008312031398
:100EB800CC01CD01101408000130F9000030FA000F
:100EC80083120313CC01CD01101408001934003427
:100ED800C83400340A3400340A3400348316031347
:100EE800811501108114011564000800831603138D
:080EF80001178B170B1608000F
:00000001FF
